{
  "_format": "hh-sol-artifact-1",
  "contractName": "VotingDapp",
  "sourceName": "contracts/VotingDapp.sol",
  "abi": [
    {
      "inputs": [],
      "stateMutability": "nonpayable",
      "type": "constructor"
    },
    {
      "anonymous": false,
      "inputs": [
        {
          "indexed": true,
          "internalType": "address",
          "name": "candidate",
          "type": "address"
        }
      ],
      "name": "CandidateApproved",
      "type": "event"
    },
    {
      "anonymous": false,
      "inputs": [
        {
          "indexed": true,
          "internalType": "address",
          "name": "candidate",
          "type": "address"
        },
        {
          "indexed": false,
          "internalType": "string",
          "name": "name",
          "type": "string"
        }
      ],
      "name": "CandidateRegistered",
      "type": "event"
    },
    {
      "anonymous": false,
      "inputs": [
        {
          "indexed": true,
          "internalType": "address",
          "name": "candidate",
          "type": "address"
        }
      ],
      "name": "CandidateRejected",
      "type": "event"
    },
    {
      "anonymous": false,
      "inputs": [
        {
          "indexed": true,
          "internalType": "address",
          "name": "previousOwner",
          "type": "address"
        },
        {
          "indexed": true,
          "internalType": "address",
          "name": "newOwner",
          "type": "address"
        }
      ],
      "name": "OwnershipTransferred",
      "type": "event"
    },
    {
      "anonymous": false,
      "inputs": [
        {
          "indexed": true,
          "internalType": "address",
          "name": "voter",
          "type": "address"
        },
        {
          "indexed": true,
          "internalType": "address",
          "name": "candidate",
          "type": "address"
        },
        {
          "indexed": false,
          "internalType": "uint256",
          "name": "voteCount",
          "type": "uint256"
        },
        {
          "indexed": false,
          "internalType": "string",
          "name": "message",
          "type": "string"
        }
      ],
      "name": "Voted",
      "type": "event"
    },
    {
      "anonymous": false,
      "inputs": [
        {
          "indexed": true,
          "internalType": "address",
          "name": "voter",
          "type": "address"
        }
      ],
      "name": "VoterApproved",
      "type": "event"
    },
    {
      "anonymous": false,
      "inputs": [
        {
          "indexed": true,
          "internalType": "address",
          "name": "voter",
          "type": "address"
        },
        {
          "indexed": false,
          "internalType": "string",
          "name": "name",
          "type": "string"
        }
      ],
      "name": "VoterRegistered",
      "type": "event"
    },
    {
      "anonymous": false,
      "inputs": [
        {
          "indexed": true,
          "internalType": "address",
          "name": "voter",
          "type": "address"
        }
      ],
      "name": "VoterRejected",
      "type": "event"
    },
    {
      "anonymous": false,
      "inputs": [
        {
          "indexed": false,
          "internalType": "uint256",
          "name": "startTime",
          "type": "uint256"
        },
        {
          "indexed": false,
          "internalType": "uint256",
          "name": "endTime",
          "type": "uint256"
        }
      ],
      "name": "VotingPeriodSet",
      "type": "event"
    },
    {
      "inputs": [
        {
          "internalType": "address",
          "name": "_candidateAddress",
          "type": "address"
        }
      ],
      "name": "approveCandidate",
      "outputs": [],
      "stateMutability": "nonpayable",
      "type": "function"
    },
    {
      "inputs": [
        {
          "internalType": "address",
          "name": "_voterAddress",
          "type": "address"
        }
      ],
      "name": "approveVoter",
      "outputs": [],
      "stateMutability": "nonpayable",
      "type": "function"
    },
    {
      "inputs": [
        {
          "internalType": "address",
          "name": "_newOwner",
          "type": "address"
        }
      ],
      "name": "changeOwner",
      "outputs": [],
      "stateMutability": "nonpayable",
      "type": "function"
    },
    {
      "inputs": [],
      "name": "endTime",
      "outputs": [
        {
          "internalType": "uint256",
          "name": "",
          "type": "uint256"
        }
      ],
      "stateMutability": "view",
      "type": "function"
    },
    {
      "inputs": [],
      "name": "getAllApprovedCandidates",
      "outputs": [
        {
          "internalType": "address[]",
          "name": "",
          "type": "address[]"
        }
      ],
      "stateMutability": "view",
      "type": "function"
    },
    {
      "inputs": [],
      "name": "getAllApprovedVoters",
      "outputs": [
        {
          "internalType": "address[]",
          "name": "",
          "type": "address[]"
        }
      ],
      "stateMutability": "view",
      "type": "function"
    },
    {
      "inputs": [],
      "name": "getAllRegisteredCandidates",
      "outputs": [
        {
          "internalType": "address[]",
          "name": "",
          "type": "address[]"
        }
      ],
      "stateMutability": "view",
      "type": "function"
    },
    {
      "inputs": [],
      "name": "getAllRegisteredVoters",
      "outputs": [
        {
          "internalType": "address[]",
          "name": "",
          "type": "address[]"
        }
      ],
      "stateMutability": "view",
      "type": "function"
    },
    {
      "inputs": [
        {
          "internalType": "address",
          "name": "_candidate",
          "type": "address"
        }
      ],
      "name": "getCandidateDetails",
      "outputs": [
        {
          "internalType": "address",
          "name": "",
          "type": "address"
        },
        {
          "internalType": "string",
          "name": "",
          "type": "string"
        },
        {
          "internalType": "uint8",
          "name": "",
          "type": "uint8"
        },
        {
          "internalType": "uint256",
          "name": "",
          "type": "uint256"
        },
        {
          "internalType": "string",
          "name": "",
          "type": "string"
        }
      ],
      "stateMutability": "view",
      "type": "function"
    },
    {
      "inputs": [],
      "name": "getCurrentVotingStatus",
      "outputs": [
        {
          "internalType": "bool",
          "name": "",
          "type": "bool"
        }
      ],
      "stateMutability": "view",
      "type": "function"
    },
    {
      "inputs": [
        {
          "internalType": "address",
          "name": "_voter",
          "type": "address"
        }
      ],
      "name": "getVoterDetails",
      "outputs": [
        {
          "internalType": "address",
          "name": "",
          "type": "address"
        },
        {
          "internalType": "string",
          "name": "",
          "type": "string"
        },
        {
          "internalType": "uint8",
          "name": "",
          "type": "uint8"
        },
        {
          "internalType": "bool",
          "name": "",
          "type": "bool"
        }
      ],
      "stateMutability": "view",
      "type": "function"
    },
    {
      "inputs": [],
      "name": "owner",
      "outputs": [
        {
          "internalType": "address",
          "name": "",
          "type": "address"
        }
      ],
      "stateMutability": "view",
      "type": "function"
    },
    {
      "inputs": [
        {
          "internalType": "address",
          "name": "_candidateAddress",
          "type": "address"
        },
        {
          "internalType": "string",
          "name": "_name",
          "type": "string"
        }
      ],
      "name": "registerCandidate",
      "outputs": [],
      "stateMutability": "nonpayable",
      "type": "function"
    },
    {
      "inputs": [
        {
          "internalType": "address",
          "name": "_voterAddress",
          "type": "address"
        },
        {
          "internalType": "string",
          "name": "_name",
          "type": "string"
        }
      ],
      "name": "registerVoter",
      "outputs": [],
      "stateMutability": "nonpayable",
      "type": "function"
    },
    {
      "inputs": [
        {
          "internalType": "address",
          "name": "_candidateAddress",
          "type": "address"
        }
      ],
      "name": "rejectCandidate",
      "outputs": [],
      "stateMutability": "nonpayable",
      "type": "function"
    },
    {
      "inputs": [
        {
          "internalType": "address",
          "name": "_voterAddress",
          "type": "address"
        }
      ],
      "name": "rejectVoter",
      "outputs": [],
      "stateMutability": "nonpayable",
      "type": "function"
    },
    {
      "inputs": [],
      "name": "resetContract",
      "outputs": [],
      "stateMutability": "nonpayable",
      "type": "function"
    },
    {
      "inputs": [
        {
          "internalType": "uint256",
          "name": "_startTime",
          "type": "uint256"
        },
        {
          "internalType": "uint256",
          "name": "_endTime",
          "type": "uint256"
        }
      ],
      "name": "setVotingPeriod",
      "outputs": [],
      "stateMutability": "nonpayable",
      "type": "function"
    },
    {
      "inputs": [],
      "name": "startTime",
      "outputs": [
        {
          "internalType": "uint256",
          "name": "",
          "type": "uint256"
        }
      ],
      "stateMutability": "view",
      "type": "function"
    },
    {
      "inputs": [
        {
          "internalType": "address",
          "name": "_candidateAddress",
          "type": "address"
        },
        {
          "internalType": "string",
          "name": "_message",
          "type": "string"
        }
      ],
      "name": "vote",
      "outputs": [],
      "stateMutability": "nonpayable",
      "type": "function"
    }
  ],
  "bytecode": "0x608060405234801561001057600080fd5b50600080546001600160a01b03191633179055611b9c806100326000396000f3fe608060405234801561001057600080fd5b506004361061012b5760003560e01c8063a15a36c7116100ad578063ba71bef011610071578063ba71bef014610273578063be230f0414610296578063beddc62a1461029e578063d3a078da146102a6578063ebbb4f84146102ae57600080fd5b8063a15a36c71461021f578063a6f9dae114610232578063a8c3d95014610245578063b0d30d2f14610258578063b181a8fc1461026b57600080fd5b80633197cbb6116100f45780633197cbb61461019b57806353ac5dc3146101b25780635ca39016146101d657806378e97925146101eb5780638da5cb5b146101f457600080fd5b80620f987f1461013057806307be7e911461014d578063119d4ddb146101625780631b04772b146101755780631bf533a414610188575b600080fd5b6101386102c1565b60405190151581526020015b60405180910390f35b61016061015b366004611637565b610306565b005b610160610170366004611637565b6103fe565b610160610183366004611637565b6104e5565b610160610196366004611659565b6105ce565b6101a460065481565b604051908152602001610144565b6101c56101c0366004611637565b6108d4565b604051610144959493929190611722565b6101de610a53565b6040516101449190611773565b6101a460055481565b600054610207906001600160a01b031681565b6040516001600160a01b039091168152602001610144565b61016061022d3660046117c0565b610ab5565b610160610240366004611637565b610b71565b610160610253366004611637565b610c1c565b610160610266366004611659565b610d0a565b610160610f25565b610286610281366004611637565b610f5b565b60405161014494939291906117e2565b6101de611050565b6101de61120d565b6101de6113bf565b6101606102bc366004611659565b61141f565b60006005546000036102d35750600090565b6005544210156102e35750600090565b600654158015906102f5575060065442115b156103005750600090565b50600190565b6000546001600160a01b031633146103395760405162461bcd60e51b815260040161033090611821565b60405180910390fd5b6001600160a01b038116600090815260016020819052604090912001805461036090611844565b90506000036103ac5760405162461bcd60e51b815260206004820152601860248201527710d85b991a59185d19481b9bdd081c9959da5cdd195c995960421b6044820152606401610330565b6001600160a01b0381166000818152600160208190526040808320600201805460ff1916909217909155517ffb3164a6124449579897d5f9107e1cb5baa17a39f06308fa25a393548570da949190a250565b6000546001600160a01b031633146104285760405162461bcd60e51b815260040161033090611821565b6001600160a01b0381166000908152600360205260409020600101805461044e90611844565b90506000036104965760405162461bcd60e51b8152602060048201526014602482015273159bdd195c881b9bdd081c9959da5cdd195c995960621b6044820152606401610330565b6001600160a01b038116600081815260036020526040808220600201805460ff19166001179055517f85e209912e11195144f49695f608785c8a31876f9d5d831813c396126a21b4849190a250565b6000546001600160a01b0316331461050f5760405162461bcd60e51b815260040161033090611821565b6001600160a01b0381166000908152600360205260409020600101805461053590611844565b905060000361057d5760405162461bcd60e51b8152602060048201526014602482015273159bdd195c881b9bdd081c9959da5cdd195c995960621b6044820152606401610330565b6001600160a01b0381166000818152600360205260408082206002908101805460ff19169091179055517f6c2566d0a3f6a59ee11e0d4898e7ff28c8ca013a94e610c1aff49c1918fac6729190a250565b600554158015906105e157506005544210155b6106225760405162461bcd60e51b8152602060048201526012602482015271159bdd1a5b99c81b9bdd081cdd185c9d195960721b6044820152606401610330565b600654158061063357506006544211155b61066e5760405162461bcd60e51b815260206004820152600c60248201526b159bdd1a5b99c8195b99195960a21b6044820152606401610330565b33600090815260036020526040902060018101805461068c90611844565b90506000036106ce5760405162461bcd60e51b815260206004820152600e60248201526d139bdd081c9959da5cdd195c995960921b6044820152606401610330565b600160028083015460ff16908111156106e9576106e961187e565b1461072b5760405162461bcd60e51b8152602060048201526012602482015271159bdd195c881b9bdd08185c1c1c9bdd995960721b6044820152606401610330565b6002810154610100900460ff16156107755760405162461bcd60e51b815260206004820152600d60248201526c105b1c9958591e481d9bdd1959609a1b6044820152606401610330565b6001600160a01b0384166000908152600160208190526040909120908101805461079e90611844565b90506000036107e55760405162461bcd60e51b815260206004820152601360248201527210d85b991a59185d19481b9bdd08199bdd5b99606a1b6044820152606401610330565b600160028083015460ff16908111156108005761080061187e565b146108465760405162461bcd60e51b815260206004820152601660248201527510d85b991a59185d19481b9bdd08185c1c1c9bdd995960521b6044820152606401610330565b600181600301600082825461085b91906118aa565b90915550506004810161086f848683611928565b5060028201805461ff00191661010017905560038101546040516001600160a01b0387169133917f55f8a2f3a69216cbc4460773534b11ed1fd463c84754ad1bce42c261b2e498cc916108c59189908990611a12565b60405180910390a35050505050565b6001600160a01b03808216600090815260016020819052604082208054600280830154949560609587958695889590949316929084019160ff169081111561091e5761091e61187e565b83600301548460040183805461093390611844565b80601f016020809104026020016040519081016040528092919081815260200182805461095f90611844565b80156109ac5780601f10610981576101008083540402835291602001916109ac565b820191906000526020600020905b81548152906001019060200180831161098f57829003601f168201915b505050505093508080546109bf90611844565b80601f01602080910402602001604051908101604052809291908181526020018280546109eb90611844565b8015610a385780601f10610a0d57610100808354040283529160200191610a38565b820191906000526020600020905b815481529060010190602001808311610a1b57829003601f168201915b50505050509050955095509550955095505091939590929450565b60606002805480602002602001604051908101604052809291908181526020018280548015610aab57602002820191906000526020600020905b81546001600160a01b03168152600190910190602001808311610a8d575b5050505050905090565b6000546001600160a01b03163314610adf5760405162461bcd60e51b815260040161033090611821565b801580610aeb57508181115b610b2a5760405162461bcd60e51b815260206004820152601060248201526f496e76616c696420656e642074696d6560801b6044820152606401610330565b6005829055600681905560408051838152602081018390527f7e3f7f0708a84de9203036abaa450dccc85ad5ff52f78c170f3edb55cf5e8828910160405180910390a15050565b6000546001600160a01b03163314610b9b5760405162461bcd60e51b815260040161033090611821565b6001600160a01b038116610bc15760405162461bcd60e51b815260040161033090611a35565b600080546040516001600160a01b03808516939216917f8be0079c531659141344cd1fd0a4f28419497f9722a3daafe3b4186f6b6457e091a3600080546001600160a01b0319166001600160a01b0392909216919091179055565b6000546001600160a01b03163314610c465760405162461bcd60e51b815260040161033090611821565b6001600160a01b0381166000908152600160208190526040909120018054610c6d90611844565b9050600003610cb95760405162461bcd60e51b815260206004820152601860248201527710d85b991a59185d19481b9bdd081c9959da5cdd195c995960421b6044820152606401610330565b6001600160a01b0381166000818152600160205260408082206002908101805460ff19169091179055517f949d82a6bf5b9f6545827f85ed5d7ad9721f1995844d4cdefad0598d11051e719190a250565b6000546001600160a01b03163314610d345760405162461bcd60e51b815260040161033090611821565b6001600160a01b038316610d5a5760405162461bcd60e51b815260040161033090611a35565b6001600160a01b0383166000908152600160208190526040909120018054610d8190611844565b9050600003610dd657600280546001810182556000919091527f405787fa12a823e0f2b7631cc41b3ba8828b3321ca811111fa75cd3aa3bb5ace0180546001600160a01b0319166001600160a01b0385161790555b6040518060a00160405280846001600160a01b0316815260200183838080601f0160208091040260200160405190810160405280939291908181526020018383808284376000920182905250938552505060209092019150815260006020808301829052604080518083018252838152938101939093526001600160a01b038781168352600180835293909220845181546001600160a01b03191693169290921782558301519091820190610e8b9082611a5b565b5060408201518160020160006101000a81548160ff02191690836002811115610eb657610eb661187e565b02179055506060820151600382015560808201516004820190610ed99082611a5b565b50905050826001600160a01b03167ff7d573e0e0f72259d79708ef22494ecdc00dd3605de228ff1a79063d7547b7c28383604051610f18929190611b1b565b60405180910390a2505050565b6000546001600160a01b03163314610f4f5760405162461bcd60e51b815260040161033090611821565b60006005819055600655565b6001600160a01b03808216600090815260036020526040812080546002808301549394606094869485949093921691600184019160ff1690811115610fa257610fa261187e565b8360020160019054906101000a900460ff16828054610fc090611844565b80601f0160208091040260200160405190810160405280929190818152602001828054610fec90611844565b80156110395780601f1061100e57610100808354040283529160200191611039565b820191906000526020600020905b81548152906001019060200180831161101c57829003601f168201915b505050505092509450945094509450509193509193565b60606000805b6004548110156110db576001600360006004848154811061107957611079611b37565b60009182526020808320909101546001600160a01b03168352820192909252604001902060029081015460ff16908111156110b6576110b661187e565b036110c957816110c581611b4d565b9250505b806110d381611b4d565b915050611056565b5060008167ffffffffffffffff8111156110f7576110f76118c3565b604051908082528060200260200182016040528015611120578160200160208202803683370190505b5090506000805b600454811015611204576001600360006004848154811061114a5761114a611b37565b60009182526020808320909101546001600160a01b03168352820192909252604001902060029081015460ff16908111156111875761118761187e565b036111f2576004818154811061119f5761119f611b37565b6000918252602090912001546001600160a01b031683836111bf81611b4d565b9450815181106111d1576111d1611b37565b60200260200101906001600160a01b031690816001600160a01b0316815250505b806111fc81611b4d565b915050611127565b50909392505050565b60606000805b6002548110156112975760018060006002848154811061123557611235611b37565b60009182526020808320909101546001600160a01b03168352820192909252604001902060029081015460ff16908111156112725761127261187e565b03611285578161128181611b4d565b9250505b8061128f81611b4d565b915050611213565b5060008167ffffffffffffffff8111156112b3576112b36118c3565b6040519080825280602002602001820160405280156112dc578160200160208202803683370190505b5090506000805b6002548110156112045760018060006002848154811061130557611305611b37565b60009182526020808320909101546001600160a01b03168352820192909252604001902060029081015460ff16908111156113425761134261187e565b036113ad576002818154811061135a5761135a611b37565b6000918252602090912001546001600160a01b0316838361137a81611b4d565b94508151811061138c5761138c611b37565b60200260200101906001600160a01b031690816001600160a01b0316815250505b806113b781611b4d565b9150506112e3565b60606004805480602002602001604051908101604052809291908181526020018280548015610aab576020028201919060005260206000209081546001600160a01b03168152600190910190602001808311610a8d575050505050905090565b6000546001600160a01b031633146114495760405162461bcd60e51b815260040161033090611821565b6001600160a01b03831661146f5760405162461bcd60e51b815260040161033090611a35565b6001600160a01b0383166000908152600360205260409020600101805461149590611844565b90506000036114ea57600480546001810182556000919091527f8a35acfbc15ff81a39ae7d344fd709f28e8600b4aa8c65c6b64bfe7fe36bd19b0180546001600160a01b0319166001600160a01b0385161790555b6040518060800160405280846001600160a01b0316815260200183838080601f01602080910402602001604051908101604052809392919081815260200183838082843760009201829052509385525050602090920191508152600060209182018190526001600160a01b038681168252600383526040909120835181546001600160a01b031916921691909117815590820151600182019061158d9082611a5b565b5060408201518160020160006101000a81548160ff021916908360028111156115b8576115b861187e565b021790555060608201518160020160016101000a81548160ff021916908315150217905550905050826001600160a01b03167fffeb7702be7dcd8fee170d954b70afb9a7c78f7f5cff232d037e7b9d8243356a8383604051610f18929190611b1b565b80356001600160a01b038116811461163257600080fd5b919050565b60006020828403121561164957600080fd5b6116528261161b565b9392505050565b60008060006040848603121561166e57600080fd5b6116778461161b565b9250602084013567ffffffffffffffff8082111561169457600080fd5b818601915086601f8301126116a857600080fd5b8135818111156116b757600080fd5b8760208285010111156116c957600080fd5b6020830194508093505050509250925092565b6000815180845260005b81811015611702576020818501810151868301820152016116e6565b506000602082860101526020601f19601f83011685010191505092915050565b6001600160a01b038616815260a060208201819052600090611746908301876116dc565b60ff86166040840152846060840152828103608084015261176781856116dc565b98975050505050505050565b6020808252825182820181905260009190848201906040850190845b818110156117b45783516001600160a01b03168352928401929184019160010161178f565b50909695505050505050565b600080604083850312156117d357600080fd5b50508035926020909101359150565b6001600160a01b0385168152608060208201819052600090611806908301866116dc565b60ff9490941660408301525090151560609091015292915050565b6020808252600990820152682737ba1037bbb732b960b91b604082015260600190565b600181811c9082168061185857607f821691505b60208210810361187857634e487b7160e01b600052602260045260246000fd5b50919050565b634e487b7160e01b600052602160045260246000fd5b634e487b7160e01b600052601160045260246000fd5b808201808211156118bd576118bd611894565b92915050565b634e487b7160e01b600052604160045260246000fd5b601f82111561192357600081815260208120601f850160051c810160208610156119005750805b601f850160051c820191505b8181101561191f5782815560010161190c565b5050505b505050565b67ffffffffffffffff831115611940576119406118c3565b6119548361194e8354611844565b836118d9565b6000601f84116001811461198857600085156119705750838201355b600019600387901b1c1916600186901b1783556119e2565b600083815260209020601f19861690835b828110156119b95786850135825560209485019460019092019101611999565b50868210156119d65760001960f88860031b161c19848701351681555b505060018560011b0183555b5050505050565b81835281816020850137506000828201602090810191909152601f909101601f19169091010190565b838152604060208201526000611a2c6040830184866119e9565b95945050505050565b6020808252600c908201526b5a65726f206164647265737360a01b604082015260600190565b815167ffffffffffffffff811115611a7557611a756118c3565b611a8981611a838454611844565b846118d9565b602080601f831160018114611abe5760008415611aa65750858301515b600019600386901b1c1916600185901b17855561191f565b600085815260208120601f198616915b82811015611aed57888601518255948401946001909101908401611ace565b5085821015611b0b5787850151600019600388901b60f8161c191681555b5050505050600190811b01905550565b602081526000611b2f6020830184866119e9565b949350505050565b634e487b7160e01b600052603260045260246000fd5b600060018201611b5f57611b5f611894565b506001019056fea2646970667358221220ef387164bc1e5b99f16200a55193c10fdf900c54483e3c6ecc7f05f0aa3372ac64736f6c63430008130033",
  "linkReferences": {},
  "deployedLinkReferences": {}
}